{
  "_format": "hh-sol-artifact-1",
  "contractName": "Hasher",
  "sourceName": "contracts/RPS.sol",
  "abi": [
    {
      "constant": true,
      "inputs": [
        {
          "name": "_c",
          "type": "uint8"
        },
        {
          "name": "_salt",
          "type": "uint256"
        }
      ],
      "name": "hash",
      "outputs": [
        {
          "name": "",
          "type": "bytes32"
        }
      ],
      "payable": false,
      "stateMutability": "view",
      "type": "function"
    }
  ],
  "bytecode": "0x6080604052348015600f57600080fd5b5060e08061001e6000396000f300608060405260043610603e5763ffffffff7c010000000000000000000000000000000000000000000000000000000060003504166367ef4c1381146043575b600080fd5b348015604e57600080fd5b50605e60ff600435166024356070565b60408051918252519081900360200190f35b604080517f010000000000000000000000000000000000000000000000000000000000000060ff8516028152600181018390529051908190036021019020929150505600a165627a7a72305820c9a1672fdd4979844b306425ad15128e27e6031c9cfaac1870c8b1a913e2d2600029",
  "linkReferences": {},
  "deployedLinkReferences": {}
}